{
	"contracts/HelloWorld.sol": {
		"HelloWorld": {
			"abi": [
				{
					"inputs": [],
					"name": "getA",
					"outputs": [
						{
							"internalType": "uint256",
							"name": "",
							"type": "uint256"
						}
					],
					"stateMutability": "view",
					"type": "function"
				},
				{
					"inputs": [],
					"name": "getHelloWorld",
					"outputs": [
						{
							"internalType": "uint256",
							"name": "",
							"type": "uint256"
						}
					],
					"stateMutability": "nonpayable",
					"type": "function"
				},
				{
					"inputs": [],
					"name": "getSmartContractAddress",
					"outputs": [
						{
							"internalType": "address",
							"name": "",
							"type": "address"
						}
					],
					"stateMutability": "view",
					"type": "function"
				},
				{
					"inputs": [],
					"name": "getSmartContractBalance",
					"outputs": [
						{
							"internalType": "uint256",
							"name": "",
							"type": "uint256"
						}
					],
					"stateMutability": "view",
					"type": "function"
				},
				{
					"inputs": [],
					"name": "getStateVariable",
					"outputs": [
						{
							"internalType": "uint256",
							"name": "",
							"type": "uint256"
						}
					],
					"stateMutability": "view",
					"type": "function"
				},
				{
					"inputs": [],
					"name": "stateVariable",
					"outputs": [
						{
							"internalType": "uint256",
							"name": "",
							"type": "uint256"
						}
					],
					"stateMutability": "view",
					"type": "function"
				},
				{
					"inputs": [],
					"name": "stateVariableInt",
					"outputs": [
						{
							"internalType": "int256",
							"name": "",
							"type": "int256"
						}
					],
					"stateMutability": "view",
					"type": "function"
				},
				{
					"inputs": [],
					"name": "varAddress",
					"outputs": [
						{
							"internalType": "address",
							"name": "",
							"type": "address"
						}
					],
					"stateMutability": "view",
					"type": "function"
				},
				{
					"inputs": [
						{
							"internalType": "uint256",
							"name": "",
							"type": "uint256"
						}
					],
					"name": "varArrayUint",
					"outputs": [
						{
							"internalType": "uint256",
							"name": "",
							"type": "uint256"
						}
					],
					"stateMutability": "view",
					"type": "function"
				},
				{
					"inputs": [],
					"name": "varBool",
					"outputs": [
						{
							"internalType": "bool",
							"name": "",
							"type": "bool"
						}
					],
					"stateMutability": "view",
					"type": "function"
				},
				{
					"inputs": [],
					"name": "varString",
					"outputs": [
						{
							"internalType": "string",
							"name": "",
							"type": "string"
						}
					],
					"stateMutability": "view",
					"type": "function"
				}
			],
			"devdoc": {
				"kind": "dev",
				"methods": {},
				"version": 1
			},
			"evm": {
				"assembly": "    /* \"contracts/HelloWorld.sol\":139:1234  contract HelloWorld {... */\n  mstore(0x40, 0x80)\n    /* \"contracts/HelloWorld.sol\":384:386  10 */\n  0x0a\n    /* \"contracts/HelloWorld.sol\":356:386  uint public stateVariable = 10 */\n  0x00\n  sstore\n    /* \"contracts/HelloWorld.sol\":422:424  -2 */\n  0xfffffffffffffffffffffffffffffffffffffffffffffffffffffffffffffffe\n    /* \"contracts/HelloWorld.sol\":392:424  int public stateVariableInt = -2 */\n  0x01\n  sstore\n    /* \"contracts/HelloWorld.sol\":430:459  string public varString = \"a\" */\n  mload(0x40)\n  dup1\n  0x40\n  add\n  0x40\n  mstore\n  dup1\n  0x01\n  dup2\n  mstore\n  0x20\n  add\n  0x6100000000000000000000000000000000000000000000000000000000000000\n  dup2\n  mstore\n  pop\n  0x02\n  swap1\n  dup1\n  mload\n  swap1\n  0x20\n  add\n  swap1\n  tag_1\n  swap3\n  swap2\n  swap1\n  tag_2\n  jump\t// in\ntag_1:\n  pop\n    /* \"contracts/HelloWorld.sol\":492:496  true */\n  0x01\n    /* \"contracts/HelloWorld.sol\":470:496  bool public varBool = true */\n  0x03\n  exp(0x0100, 0x00)\n  dup2\n  sload\n  dup2\n  0xff\n  mul\n  not\n  and\n  swap1\n  dup4\n  iszero\n  iszero\n  mul\n  or\n  swap1\n  sstore\n  pop\n    /* \"contracts/HelloWorld.sol\":139:1234  contract HelloWorld {... */\n  callvalue\n  dup1\n  iszero\n  tag_3\n  jumpi\n  0x00\n  dup1\n  revert\ntag_3:\n  pop\n  jump(tag_4)\ntag_2:\n  dup3\n  dup1\n  sload\n  tag_5\n  swap1\n  tag_6\n  jump\t// in\ntag_5:\n  swap1\n  0x00\n  mstore\n  keccak256(0x00, 0x20)\n  swap1\n  0x1f\n  add\n  0x20\n  swap1\n  div\n  dup2\n  add\n  swap3\n  dup3\n  tag_8\n  jumpi\n  0x00\n  dup6\n  sstore\n  jump(tag_7)\ntag_8:\n  dup3\n  0x1f\n  lt\n  tag_9\n  jumpi\n  dup1\n  mload\n  not(0xff)\n  and\n  dup4\n  dup1\n  add\n  or\n  dup6\n  sstore\n  jump(tag_7)\ntag_9:\n  dup3\n  dup1\n  add\n  0x01\n  add\n  dup6\n  sstore\n  dup3\n  iszero\n  tag_7\n  jumpi\n  swap2\n  dup3\n  add\ntag_10:\n  dup3\n  dup2\n  gt\n  iszero\n  tag_11\n  jumpi\n  dup3\n  mload\n  dup3\n  sstore\n  swap2\n  0x20\n  add\n  swap2\n  swap1\n  0x01\n  add\n  swap1\n  jump(tag_10)\ntag_11:\ntag_7:\n  pop\n  swap1\n  pop\n  tag_12\n  swap2\n  swap1\n  tag_13\n  jump\t// in\ntag_12:\n  pop\n  swap1\n  jump\t// out\ntag_13:\ntag_14:\n  dup1\n  dup3\n  gt\n  iszero\n  tag_15\n  jumpi\n  0x00\n  dup2\n  0x00\n  swap1\n  sstore\n  pop\n  0x01\n  add\n  jump(tag_14)\ntag_15:\n  pop\n  swap1\n  jump\t// out\n    /* \"#utility.yul\":7:327   */\ntag_6:\n  0x00\n    /* \"#utility.yul\":88:89   */\n  0x02\n    /* \"#utility.yul\":82:86   */\n  dup3\n    /* \"#utility.yul\":78:90   */\n  div\n    /* \"#utility.yul\":68:90   */\n  swap1\n  pop\n    /* \"#utility.yul\":135:136   */\n  0x01\n    /* \"#utility.yul\":129:133   */\n  dup3\n    /* \"#utility.yul\":125:137   */\n  and\n    /* \"#utility.yul\":156:174   */\n  dup1\n    /* \"#utility.yul\":146:148   */\n  tag_18\n  jumpi\n    /* \"#utility.yul\":212:216   */\n  0x7f\n    /* \"#utility.yul\":204:210   */\n  dup3\n    /* \"#utility.yul\":200:217   */\n  and\n    /* \"#utility.yul\":190:217   */\n  swap2\n  pop\n    /* \"#utility.yul\":146:148   */\ntag_18:\n    /* \"#utility.yul\":274:276   */\n  0x20\n    /* \"#utility.yul\":266:272   */\n  dup3\n    /* \"#utility.yul\":263:277   */\n  lt\n    /* \"#utility.yul\":243:261   */\n  dup2\n    /* \"#utility.yul\":240:278   */\n  eq\n    /* \"#utility.yul\":237:239   */\n  iszero\n  tag_19\n  jumpi\n    /* \"#utility.yul\":293:311   */\n  tag_20\n  tag_21\n  jump\t// in\ntag_20:\n    /* \"#utility.yul\":237:239   */\ntag_19:\n    /* \"#utility.yul\":58:327   */\n  pop\n  swap2\n  swap1\n  pop\n  jump\t// out\n    /* \"#utility.yul\":333:513   */\ntag_21:\n    /* \"#utility.yul\":381:458   */\n  0x4e487b7100000000000000000000000000000000000000000000000000000000\n    /* \"#utility.yul\":378:379   */\n  0x00\n    /* \"#utility.yul\":371:459   */\n  mstore\n    /* \"#utility.yul\":478:482   */\n  0x22\n    /* \"#utility.yul\":475:476   */\n  0x04\n    /* \"#utility.yul\":468:483   */\n  mstore\n    /* \"#utility.yul\":502:506   */\n  0x24\n    /* \"#utility.yul\":499:500   */\n  0x00\n    /* \"#utility.yul\":492:507   */\n  revert\n    /* \"contracts/HelloWorld.sol\":139:1234  contract HelloWorld {... */\ntag_4:\n  dataSize(sub_0)\n  dup1\n  dataOffset(sub_0)\n  0x00\n  codecopy\n  0x00\n  return\nstop\n\nsub_0: assembly {\n        /* \"contracts/HelloWorld.sol\":139:1234  contract HelloWorld {... */\n      mstore(0x40, 0x80)\n      callvalue\n      dup1\n      iszero\n      tag_1\n      jumpi\n      0x00\n      dup1\n      revert\n    tag_1:\n      pop\n      jumpi(tag_2, lt(calldatasize, 0x04))\n      shr(0xe0, calldataload(0x00))\n      dup1\n      0xa2d3f117\n      gt\n      tag_14\n      jumpi\n      dup1\n      0xa2d3f117\n      eq\n      tag_8\n      jumpi\n      dup1\n      0xa7ef4329\n      eq\n      tag_9\n      jumpi\n      dup1\n      0xba22b3ca\n      eq\n      tag_10\n      jumpi\n      dup1\n      0xd46300fd\n      eq\n      tag_11\n      jumpi\n      dup1\n      0xd6ba0cba\n      eq\n      tag_12\n      jumpi\n      dup1\n      0xe1967eae\n      eq\n      tag_13\n      jumpi\n      jump(tag_2)\n    tag_14:\n      dup1\n      0x0d1806ce\n      eq\n      tag_3\n      jumpi\n      dup1\n      0x3b74cb3a\n      eq\n      tag_4\n      jumpi\n      dup1\n      0x5145cbc0\n      eq\n      tag_5\n      jumpi\n      dup1\n      0x7a01785f\n      eq\n      tag_6\n      jumpi\n      dup1\n      0x936469d6\n      eq\n      tag_7\n      jumpi\n    tag_2:\n      0x00\n      dup1\n      revert\n        /* \"contracts/HelloWorld.sol\":546:572  uint[] public varArrayUint */\n    tag_3:\n      tag_15\n      0x04\n      dup1\n      calldatasize\n      sub\n      dup2\n      add\n      swap1\n      tag_16\n      swap2\n      swap1\n      tag_17\n      jump\t// in\n    tag_16:\n      tag_18\n      jump\t// in\n    tag_15:\n      mload(0x40)\n      tag_19\n      swap2\n      swap1\n      tag_20\n      jump\t// in\n    tag_19:\n      mload(0x40)\n      dup1\n      swap2\n      sub\n      swap1\n      return\n        /* \"contracts/HelloWorld.sol\":852:961  function getSmartContractAddress() public view returns (address) {... */\n    tag_4:\n      tag_21\n      tag_22\n      jump\t// in\n    tag_21:\n      mload(0x40)\n      tag_23\n      swap2\n      swap1\n      tag_24\n      jump\t// in\n    tag_23:\n      mload(0x40)\n      dup1\n      swap2\n      sub\n      swap1\n      return\n        /* \"contracts/HelloWorld.sol\":972:1086  function getSmartContractBalance() public view returns (uint) {... */\n    tag_5:\n      tag_25\n      tag_26\n      jump\t// in\n    tag_25:\n      mload(0x40)\n      tag_27\n      swap2\n      swap1\n      tag_20\n      jump\t// in\n    tag_27:\n      mload(0x40)\n      dup1\n      swap2\n      sub\n      swap1\n      return\n        /* \"contracts/HelloWorld.sol\":515:540  address public varAddress */\n    tag_6:\n      tag_28\n      tag_29\n      jump\t// in\n    tag_28:\n      mload(0x40)\n      tag_30\n      swap2\n      swap1\n      tag_24\n      jump\t// in\n    tag_30:\n      mload(0x40)\n      dup1\n      swap2\n      sub\n      swap1\n      return\n        /* \"contracts/HelloWorld.sol\":753:845  function getStateVariable() public view returns (uint) {... */\n    tag_7:\n      tag_31\n      tag_32\n      jump\t// in\n    tag_31:\n      mload(0x40)\n      tag_33\n      swap2\n      swap1\n      tag_20\n      jump\t// in\n    tag_33:\n      mload(0x40)\n      dup1\n      swap2\n      sub\n      swap1\n      return\n        /* \"contracts/HelloWorld.sol\":470:496  bool public varBool = true */\n    tag_8:\n      tag_34\n      tag_35\n      jump\t// in\n    tag_34:\n      mload(0x40)\n      tag_36\n      swap2\n      swap1\n      tag_37\n      jump\t// in\n    tag_36:\n      mload(0x40)\n      dup1\n      swap2\n      sub\n      swap1\n      return\n        /* \"contracts/HelloWorld.sol\":636:747  function getHelloWorld() public returns (uint) {... */\n    tag_9:\n      tag_38\n      tag_39\n      jump\t// in\n    tag_38:\n      mload(0x40)\n      tag_40\n      swap2\n      swap1\n      tag_20\n      jump\t// in\n    tag_40:\n      mload(0x40)\n      dup1\n      swap2\n      sub\n      swap1\n      return\n        /* \"contracts/HelloWorld.sol\":430:459  string public varString = \"a\" */\n    tag_10:\n      tag_41\n      tag_42\n      jump\t// in\n    tag_41:\n      mload(0x40)\n      tag_43\n      swap2\n      swap1\n      tag_44\n      jump\t// in\n    tag_43:\n      mload(0x40)\n      dup1\n      swap2\n      sub\n      swap1\n      return\n        /* \"contracts/HelloWorld.sol\":1124:1232  function getA() public view returns(uint) {... */\n    tag_11:\n      tag_45\n      tag_46\n      jump\t// in\n    tag_45:\n      mload(0x40)\n      tag_47\n      swap2\n      swap1\n      tag_20\n      jump\t// in\n    tag_47:\n      mload(0x40)\n      dup1\n      swap2\n      sub\n      swap1\n      return\n        /* \"contracts/HelloWorld.sol\":392:424  int public stateVariableInt = -2 */\n    tag_12:\n      tag_48\n      tag_49\n      jump\t// in\n    tag_48:\n      mload(0x40)\n      tag_50\n      swap2\n      swap1\n      tag_51\n      jump\t// in\n    tag_50:\n      mload(0x40)\n      dup1\n      swap2\n      sub\n      swap1\n      return\n        /* \"contracts/HelloWorld.sol\":356:386  uint public stateVariable = 10 */\n    tag_13:\n      tag_52\n      tag_53\n      jump\t// in\n    tag_52:\n      mload(0x40)\n      tag_54\n      swap2\n      swap1\n      tag_20\n      jump\t// in\n    tag_54:\n      mload(0x40)\n      dup1\n      swap2\n      sub\n      swap1\n      return\n        /* \"contracts/HelloWorld.sol\":546:572  uint[] public varArrayUint */\n    tag_18:\n      0x04\n      dup2\n      dup2\n      sload\n      dup2\n      lt\n      tag_55\n      jumpi\n      0x00\n      dup1\n      revert\n    tag_55:\n      swap1\n      0x00\n      mstore\n      keccak256(0x00, 0x20)\n      add\n      0x00\n      swap2\n      pop\n      swap1\n      pop\n      sload\n      dup2\n      jump\t// out\n        /* \"contracts/HelloWorld.sol\":852:961  function getSmartContractAddress() public view returns (address) {... */\n    tag_22:\n        /* \"contracts/HelloWorld.sol\":908:915  address */\n      0x00\n        /* \"contracts/HelloWorld.sol\":942:946  this */\n      address\n        /* \"contracts/HelloWorld.sol\":927:947  return address(this) */\n      swap1\n      pop\n        /* \"contracts/HelloWorld.sol\":852:961  function getSmartContractAddress() public view returns (address) {... */\n      swap1\n      jump\t// out\n        /* \"contracts/HelloWorld.sol\":972:1086  function getSmartContractBalance() public view returns (uint) {... */\n    tag_26:\n        /* \"contracts/HelloWorld.sol\":1028:1032  uint */\n      0x00\n        /* \"contracts/HelloWorld.sol\":1051:1072  address(this).balance */\n      selfbalance\n        /* \"contracts/HelloWorld.sol\":1044:1072  return address(this).balance */\n      swap1\n      pop\n        /* \"contracts/HelloWorld.sol\":972:1086  function getSmartContractBalance() public view returns (uint) {... */\n      swap1\n      jump\t// out\n        /* \"contracts/HelloWorld.sol\":515:540  address public varAddress */\n    tag_29:\n      0x03\n      0x01\n      swap1\n      sload\n      swap1\n      0x0100\n      exp\n      swap1\n      div\n      0xffffffffffffffffffffffffffffffffffffffff\n      and\n      dup2\n      jump\t// out\n        /* \"contracts/HelloWorld.sol\":753:845  function getStateVariable() public view returns (uint) {... */\n    tag_32:\n        /* \"contracts/HelloWorld.sol\":802:806  uint */\n      0x00\n        /* \"contracts/HelloWorld.sol\":825:838  stateVariable */\n      dup1\n      sload\n        /* \"contracts/HelloWorld.sol\":818:838  return stateVariable */\n      swap1\n      pop\n        /* \"contracts/HelloWorld.sol\":753:845  function getStateVariable() public view returns (uint) {... */\n      swap1\n      jump\t// out\n        /* \"contracts/HelloWorld.sol\":470:496  bool public varBool = true */\n    tag_35:\n      0x03\n      0x00\n      swap1\n      sload\n      swap1\n      0x0100\n      exp\n      swap1\n      div\n      0xff\n      and\n      dup2\n      jump\t// out\n        /* \"contracts/HelloWorld.sol\":636:747  function getHelloWorld() public returns (uint) {... */\n    tag_39:\n        /* \"contracts/HelloWorld.sol\":677:681  uint */\n      0x00\n        /* \"contracts/HelloWorld.sol\":709:710  5 */\n      0x05\n        /* \"contracts/HelloWorld.sol\":693:706  stateVariable */\n      0x00\n        /* \"contracts/HelloWorld.sol\":693:710  stateVariable = 5 */\n      dup2\n      swap1\n      sstore\n      pop\n        /* \"contracts/HelloWorld.sol\":727:740  stateVariable */\n      sload(0x00)\n        /* \"contracts/HelloWorld.sol\":720:740  return stateVariable */\n      swap1\n      pop\n        /* \"contracts/HelloWorld.sol\":636:747  function getHelloWorld() public returns (uint) {... */\n      swap1\n      jump\t// out\n        /* \"contracts/HelloWorld.sol\":430:459  string public varString = \"a\" */\n    tag_42:\n      0x02\n      dup1\n      sload\n      tag_61\n      swap1\n      tag_62\n      jump\t// in\n    tag_61:\n      dup1\n      0x1f\n      add\n      0x20\n      dup1\n      swap2\n      div\n      mul\n      0x20\n      add\n      mload(0x40)\n      swap1\n      dup2\n      add\n      0x40\n      mstore\n      dup1\n      swap3\n      swap2\n      swap1\n      dup2\n      dup2\n      mstore\n      0x20\n      add\n      dup3\n      dup1\n      sload\n      tag_63\n      swap1\n      tag_62\n      jump\t// in\n    tag_63:\n      dup1\n      iszero\n      tag_64\n      jumpi\n      dup1\n      0x1f\n      lt\n      tag_65\n      jumpi\n      0x0100\n      dup1\n      dup4\n      sload\n      div\n      mul\n      dup4\n      mstore\n      swap2\n      0x20\n      add\n      swap2\n      jump(tag_64)\n    tag_65:\n      dup3\n      add\n      swap2\n      swap1\n      0x00\n      mstore\n      keccak256(0x00, 0x20)\n      swap1\n    tag_66:\n      dup2\n      sload\n      dup2\n      mstore\n      swap1\n      0x01\n      add\n      swap1\n      0x20\n      add\n      dup1\n      dup4\n      gt\n      tag_66\n      jumpi\n      dup3\n      swap1\n      sub\n      0x1f\n      and\n      dup3\n      add\n      swap2\n    tag_64:\n      pop\n      pop\n      pop\n      pop\n      pop\n      dup2\n      jump\t// out\n        /* \"contracts/HelloWorld.sol\":1124:1232  function getA() public view returns(uint) {... */\n    tag_46:\n        /* \"contracts/HelloWorld.sol\":1160:1164  uint */\n      0x00\n        /* \"contracts/HelloWorld.sol\":1176:1182  uint a */\n      dup1\n        /* \"contracts/HelloWorld.sol\":1190:1206  stateVariableInt */\n      sload(0x01)\n        /* \"contracts/HelloWorld.sol\":1176:1207  uint a = uint(stateVariableInt) */\n      swap1\n      pop\n        /* \"contracts/HelloWorld.sol\":1224:1225  a */\n      dup1\n        /* \"contracts/HelloWorld.sol\":1217:1225  return a */\n      swap2\n      pop\n      pop\n        /* \"contracts/HelloWorld.sol\":1124:1232  function getA() public view returns(uint) {... */\n      swap1\n      jump\t// out\n        /* \"contracts/HelloWorld.sol\":392:424  int public stateVariableInt = -2 */\n    tag_49:\n      sload(0x01)\n      dup2\n      jump\t// out\n        /* \"contracts/HelloWorld.sol\":356:386  uint public stateVariable = 10 */\n    tag_53:\n      sload(0x00)\n      dup2\n      jump\t// out\n        /* \"#utility.yul\":7:146   */\n    tag_69:\n      0x00\n        /* \"#utility.yul\":91:97   */\n      dup2\n        /* \"#utility.yul\":78:98   */\n      calldataload\n        /* \"#utility.yul\":69:98   */\n      swap1\n      pop\n        /* \"#utility.yul\":107:140   */\n      tag_71\n        /* \"#utility.yul\":134:139   */\n      dup2\n        /* \"#utility.yul\":107:140   */\n      tag_72\n      jump\t// in\n    tag_71:\n        /* \"#utility.yul\":59:146   */\n      swap3\n      swap2\n      pop\n      pop\n      jump\t// out\n        /* \"#utility.yul\":152:414   */\n    tag_17:\n      0x00\n        /* \"#utility.yul\":260:262   */\n      0x20\n        /* \"#utility.yul\":248:257   */\n      dup3\n        /* \"#utility.yul\":239:246   */\n      dup5\n        /* \"#utility.yul\":235:258   */\n      sub\n        /* \"#utility.yul\":231:263   */\n      slt\n        /* \"#utility.yul\":228:230   */\n      iszero\n      tag_74\n      jumpi\n        /* \"#utility.yul\":276:277   */\n      0x00\n        /* \"#utility.yul\":273:274   */\n      dup1\n        /* \"#utility.yul\":266:278   */\n      revert\n        /* \"#utility.yul\":228:230   */\n    tag_74:\n        /* \"#utility.yul\":319:320   */\n      0x00\n        /* \"#utility.yul\":344:397   */\n      tag_75\n        /* \"#utility.yul\":389:396   */\n      dup5\n        /* \"#utility.yul\":380:386   */\n      dup3\n        /* \"#utility.yul\":369:378   */\n      dup6\n        /* \"#utility.yul\":365:387   */\n      add\n        /* \"#utility.yul\":344:397   */\n      tag_69\n      jump\t// in\n    tag_75:\n        /* \"#utility.yul\":334:397   */\n      swap2\n      pop\n        /* \"#utility.yul\":290:407   */\n      pop\n        /* \"#utility.yul\":218:414   */\n      swap3\n      swap2\n      pop\n      pop\n      jump\t// out\n        /* \"#utility.yul\":420:538   */\n    tag_76:\n        /* \"#utility.yul\":507:531   */\n      tag_78\n        /* \"#utility.yul\":525:530   */\n      dup2\n        /* \"#utility.yul\":507:531   */\n      tag_79\n      jump\t// in\n    tag_78:\n        /* \"#utility.yul\":502:505   */\n      dup3\n        /* \"#utility.yul\":495:532   */\n      mstore\n        /* \"#utility.yul\":485:538   */\n      pop\n      pop\n      jump\t// out\n        /* \"#utility.yul\":544:653   */\n    tag_80:\n        /* \"#utility.yul\":625:646   */\n      tag_82\n        /* \"#utility.yul\":640:645   */\n      dup2\n        /* \"#utility.yul\":625:646   */\n      tag_83\n      jump\t// in\n    tag_82:\n        /* \"#utility.yul\":620:623   */\n      dup3\n        /* \"#utility.yul\":613:647   */\n      mstore\n        /* \"#utility.yul\":603:653   */\n      pop\n      pop\n      jump\t// out\n        /* \"#utility.yul\":659:774   */\n    tag_84:\n        /* \"#utility.yul\":744:767   */\n      tag_86\n        /* \"#utility.yul\":761:766   */\n      dup2\n        /* \"#utility.yul\":744:767   */\n      tag_87\n      jump\t// in\n    tag_86:\n        /* \"#utility.yul\":739:742   */\n      dup3\n        /* \"#utility.yul\":732:768   */\n      mstore\n        /* \"#utility.yul\":722:774   */\n      pop\n      pop\n      jump\t// out\n        /* \"#utility.yul\":780:1144   */\n    tag_88:\n      0x00\n        /* \"#utility.yul\":896:935   */\n      tag_90\n        /* \"#utility.yul\":929:934   */\n      dup3\n        /* \"#utility.yul\":896:935   */\n      tag_91\n      jump\t// in\n    tag_90:\n        /* \"#utility.yul\":951:1022   */\n      tag_92\n        /* \"#utility.yul\":1015:1021   */\n      dup2\n        /* \"#utility.yul\":1010:1013   */\n      dup6\n        /* \"#utility.yul\":951:1022   */\n      tag_93\n      jump\t// in\n    tag_92:\n        /* \"#utility.yul\":944:1022   */\n      swap4\n      pop\n        /* \"#utility.yul\":1031:1083   */\n      tag_94\n        /* \"#utility.yul\":1076:1082   */\n      dup2\n        /* \"#utility.yul\":1071:1074   */\n      dup6\n        /* \"#utility.yul\":1064:1068   */\n      0x20\n        /* \"#utility.yul\":1057:1062   */\n      dup7\n        /* \"#utility.yul\":1053:1069   */\n      add\n        /* \"#utility.yul\":1031:1083   */\n      tag_95\n      jump\t// in\n    tag_94:\n        /* \"#utility.yul\":1108:1137   */\n      tag_96\n        /* \"#utility.yul\":1130:1136   */\n      dup2\n        /* \"#utility.yul\":1108:1137   */\n      tag_97\n      jump\t// in\n    tag_96:\n        /* \"#utility.yul\":1103:1106   */\n      dup5\n        /* \"#utility.yul\":1099:1138   */\n      add\n        /* \"#utility.yul\":1092:1138   */\n      swap2\n      pop\n        /* \"#utility.yul\":872:1144   */\n      pop\n      swap3\n      swap2\n      pop\n      pop\n      jump\t// out\n        /* \"#utility.yul\":1150:1268   */\n    tag_98:\n        /* \"#utility.yul\":1237:1261   */\n      tag_100\n        /* \"#utility.yul\":1255:1260   */\n      dup2\n        /* \"#utility.yul\":1237:1261   */\n      tag_101\n      jump\t// in\n    tag_100:\n        /* \"#utility.yul\":1232:1235   */\n      dup3\n        /* \"#utility.yul\":1225:1262   */\n      mstore\n        /* \"#utility.yul\":1215:1268   */\n      pop\n      pop\n      jump\t// out\n        /* \"#utility.yul\":1274:1496   */\n    tag_24:\n      0x00\n        /* \"#utility.yul\":1405:1407   */\n      0x20\n        /* \"#utility.yul\":1394:1403   */\n      dup3\n        /* \"#utility.yul\":1390:1408   */\n      add\n        /* \"#utility.yul\":1382:1408   */\n      swap1\n      pop\n        /* \"#utility.yul\":1418:1489   */\n      tag_103\n        /* \"#utility.yul\":1486:1487   */\n      0x00\n        /* \"#utility.yul\":1475:1484   */\n      dup4\n        /* \"#utility.yul\":1471:1488   */\n      add\n        /* \"#utility.yul\":1462:1468   */\n      dup5\n        /* \"#utility.yul\":1418:1489   */\n      tag_76\n      jump\t// in\n    tag_103:\n        /* \"#utility.yul\":1372:1496   */\n      swap3\n      swap2\n      pop\n      pop\n      jump\t// out\n        /* \"#utility.yul\":1502:1712   */\n    tag_37:\n      0x00\n        /* \"#utility.yul\":1627:1629   */\n      0x20\n        /* \"#utility.yul\":1616:1625   */\n      dup3\n        /* \"#utility.yul\":1612:1630   */\n      add\n        /* \"#utility.yul\":1604:1630   */\n      swap1\n      pop\n        /* \"#utility.yul\":1640:1705   */\n      tag_105\n        /* \"#utility.yul\":1702:1703   */\n      0x00\n        /* \"#utility.yul\":1691:1700   */\n      dup4\n        /* \"#utility.yul\":1687:1704   */\n      add\n        /* \"#utility.yul\":1678:1684   */\n      dup5\n        /* \"#utility.yul\":1640:1705   */\n      tag_80\n      jump\t// in\n    tag_105:\n        /* \"#utility.yul\":1594:1712   */\n      swap3\n      swap2\n      pop\n      pop\n      jump\t// out\n        /* \"#utility.yul\":1718:1936   */\n    tag_51:\n      0x00\n        /* \"#utility.yul\":1847:1849   */\n      0x20\n        /* \"#utility.yul\":1836:1845   */\n      dup3\n        /* \"#utility.yul\":1832:1850   */\n      add\n        /* \"#utility.yul\":1824:1850   */\n      swap1\n      pop\n        /* \"#utility.yul\":1860:1929   */\n      tag_107\n        /* \"#utility.yul\":1926:1927   */\n      0x00\n        /* \"#utility.yul\":1915:1924   */\n      dup4\n        /* \"#utility.yul\":1911:1928   */\n      add\n        /* \"#utility.yul\":1902:1908   */\n      dup5\n        /* \"#utility.yul\":1860:1929   */\n      tag_84\n      jump\t// in\n    tag_107:\n        /* \"#utility.yul\":1814:1936   */\n      swap3\n      swap2\n      pop\n      pop\n      jump\t// out\n        /* \"#utility.yul\":1942:2255   */\n    tag_44:\n      0x00\n        /* \"#utility.yul\":2093:2095   */\n      0x20\n        /* \"#utility.yul\":2082:2091   */\n      dup3\n        /* \"#utility.yul\":2078:2096   */\n      add\n        /* \"#utility.yul\":2070:2096   */\n      swap1\n      pop\n        /* \"#utility.yul\":2142:2151   */\n      dup2\n        /* \"#utility.yul\":2136:2140   */\n      dup2\n        /* \"#utility.yul\":2132:2152   */\n      sub\n        /* \"#utility.yul\":2128:2129   */\n      0x00\n        /* \"#utility.yul\":2117:2126   */\n      dup4\n        /* \"#utility.yul\":2113:2130   */\n      add\n        /* \"#utility.yul\":2106:2153   */\n      mstore\n        /* \"#utility.yul\":2170:2248   */\n      tag_109\n        /* \"#utility.yul\":2243:2247   */\n      dup2\n        /* \"#utility.yul\":2234:2240   */\n      dup5\n        /* \"#utility.yul\":2170:2248   */\n      tag_88\n      jump\t// in\n    tag_109:\n        /* \"#utility.yul\":2162:2248   */\n      swap1\n      pop\n        /* \"#utility.yul\":2060:2255   */\n      swap3\n      swap2\n      pop\n      pop\n      jump\t// out\n        /* \"#utility.yul\":2261:2483   */\n    tag_20:\n      0x00\n        /* \"#utility.yul\":2392:2394   */\n      0x20\n        /* \"#utility.yul\":2381:2390   */\n      dup3\n        /* \"#utility.yul\":2377:2395   */\n      add\n        /* \"#utility.yul\":2369:2395   */\n      swap1\n      pop\n        /* \"#utility.yul\":2405:2476   */\n      tag_111\n        /* \"#utility.yul\":2473:2474   */\n      0x00\n        /* \"#utility.yul\":2462:2471   */\n      dup4\n        /* \"#utility.yul\":2458:2475   */\n      add\n        /* \"#utility.yul\":2449:2455   */\n      dup5\n        /* \"#utility.yul\":2405:2476   */\n      tag_98\n      jump\t// in\n    tag_111:\n        /* \"#utility.yul\":2359:2483   */\n      swap3\n      swap2\n      pop\n      pop\n      jump\t// out\n        /* \"#utility.yul\":2489:2588   */\n    tag_91:\n      0x00\n        /* \"#utility.yul\":2575:2580   */\n      dup2\n        /* \"#utility.yul\":2569:2581   */\n      mload\n        /* \"#utility.yul\":2559:2581   */\n      swap1\n      pop\n        /* \"#utility.yul\":2548:2588   */\n      swap2\n      swap1\n      pop\n      jump\t// out\n        /* \"#utility.yul\":2594:2763   */\n    tag_93:\n      0x00\n        /* \"#utility.yul\":2712:2718   */\n      dup3\n        /* \"#utility.yul\":2707:2710   */\n      dup3\n        /* \"#utility.yul\":2700:2719   */\n      mstore\n        /* \"#utility.yul\":2752:2756   */\n      0x20\n        /* \"#utility.yul\":2747:2750   */\n      dup3\n        /* \"#utility.yul\":2743:2757   */\n      add\n        /* \"#utility.yul\":2728:2757   */\n      swap1\n      pop\n        /* \"#utility.yul\":2690:2763   */\n      swap3\n      swap2\n      pop\n      pop\n      jump\t// out\n        /* \"#utility.yul\":2769:2865   */\n    tag_79:\n      0x00\n        /* \"#utility.yul\":2835:2859   */\n      tag_115\n        /* \"#utility.yul\":2853:2858   */\n      dup3\n        /* \"#utility.yul\":2835:2859   */\n      tag_116\n      jump\t// in\n    tag_115:\n        /* \"#utility.yul\":2824:2859   */\n      swap1\n      pop\n        /* \"#utility.yul\":2814:2865   */\n      swap2\n      swap1\n      pop\n      jump\t// out\n        /* \"#utility.yul\":2871:2961   */\n    tag_83:\n      0x00\n        /* \"#utility.yul\":2948:2953   */\n      dup2\n        /* \"#utility.yul\":2941:2954   */\n      iszero\n        /* \"#utility.yul\":2934:2955   */\n      iszero\n        /* \"#utility.yul\":2923:2955   */\n      swap1\n      pop\n        /* \"#utility.yul\":2913:2961   */\n      swap2\n      swap1\n      pop\n      jump\t// out\n        /* \"#utility.yul\":2967:3043   */\n    tag_87:\n      0x00\n        /* \"#utility.yul\":3032:3037   */\n      dup2\n        /* \"#utility.yul\":3021:3037   */\n      swap1\n      pop\n        /* \"#utility.yul\":3011:3043   */\n      swap2\n      swap1\n      pop\n      jump\t// out\n        /* \"#utility.yul\":3049:3175   */\n    tag_116:\n      0x00\n        /* \"#utility.yul\":3126:3168   */\n      0xffffffffffffffffffffffffffffffffffffffff\n        /* \"#utility.yul\":3119:3124   */\n      dup3\n        /* \"#utility.yul\":3115:3169   */\n      and\n        /* \"#utility.yul\":3104:3169   */\n      swap1\n      pop\n        /* \"#utility.yul\":3094:3175   */\n      swap2\n      swap1\n      pop\n      jump\t// out\n        /* \"#utility.yul\":3181:3258   */\n    tag_101:\n      0x00\n        /* \"#utility.yul\":3247:3252   */\n      dup2\n        /* \"#utility.yul\":3236:3252   */\n      swap1\n      pop\n        /* \"#utility.yul\":3226:3258   */\n      swap2\n      swap1\n      pop\n      jump\t// out\n        /* \"#utility.yul\":3264:3571   */\n    tag_95:\n        /* \"#utility.yul\":3332:3333   */\n      0x00\n        /* \"#utility.yul\":3342:3455   */\n    tag_122:\n        /* \"#utility.yul\":3356:3362   */\n      dup4\n        /* \"#utility.yul\":3353:3354   */\n      dup2\n        /* \"#utility.yul\":3350:3363   */\n      lt\n        /* \"#utility.yul\":3342:3455   */\n      iszero\n      tag_124\n      jumpi\n        /* \"#utility.yul\":3441:3442   */\n      dup1\n        /* \"#utility.yul\":3436:3439   */\n      dup3\n        /* \"#utility.yul\":3432:3443   */\n      add\n        /* \"#utility.yul\":3426:3444   */\n      mload\n        /* \"#utility.yul\":3422:3423   */\n      dup2\n        /* \"#utility.yul\":3417:3420   */\n      dup5\n        /* \"#utility.yul\":3413:3424   */\n      add\n        /* \"#utility.yul\":3406:3445   */\n      mstore\n        /* \"#utility.yul\":3378:3380   */\n      0x20\n        /* \"#utility.yul\":3375:3376   */\n      dup2\n        /* \"#utility.yul\":3371:3381   */\n      add\n        /* \"#utility.yul\":3366:3381   */\n      swap1\n      pop\n        /* \"#utility.yul\":3342:3455   */\n      jump(tag_122)\n    tag_124:\n        /* \"#utility.yul\":3473:3479   */\n      dup4\n        /* \"#utility.yul\":3470:3471   */\n      dup2\n        /* \"#utility.yul\":3467:3480   */\n      gt\n        /* \"#utility.yul\":3464:3466   */\n      iszero\n      tag_125\n      jumpi\n        /* \"#utility.yul\":3553:3554   */\n      0x00\n        /* \"#utility.yul\":3544:3550   */\n      dup5\n        /* \"#utility.yul\":3539:3542   */\n      dup5\n        /* \"#utility.yul\":3535:3551   */\n      add\n        /* \"#utility.yul\":3528:3555   */\n      mstore\n        /* \"#utility.yul\":3464:3466   */\n    tag_125:\n        /* \"#utility.yul\":3313:3571   */\n      pop\n      pop\n      pop\n      pop\n      jump\t// out\n        /* \"#utility.yul\":3577:3897   */\n    tag_62:\n      0x00\n        /* \"#utility.yul\":3658:3659   */\n      0x02\n        /* \"#utility.yul\":3652:3656   */\n      dup3\n        /* \"#utility.yul\":3648:3660   */\n      div\n        /* \"#utility.yul\":3638:3660   */\n      swap1\n      pop\n        /* \"#utility.yul\":3705:3706   */\n      0x01\n        /* \"#utility.yul\":3699:3703   */\n      dup3\n        /* \"#utility.yul\":3695:3707   */\n      and\n        /* \"#utility.yul\":3726:3744   */\n      dup1\n        /* \"#utility.yul\":3716:3718   */\n      tag_127\n      jumpi\n        /* \"#utility.yul\":3782:3786   */\n      0x7f\n        /* \"#utility.yul\":3774:3780   */\n      dup3\n        /* \"#utility.yul\":3770:3787   */\n      and\n        /* \"#utility.yul\":3760:3787   */\n      swap2\n      pop\n        /* \"#utility.yul\":3716:3718   */\n    tag_127:\n        /* \"#utility.yul\":3844:3846   */\n      0x20\n        /* \"#utility.yul\":3836:3842   */\n      dup3\n        /* \"#utility.yul\":3833:3847   */\n      lt\n        /* \"#utility.yul\":3813:3831   */\n      dup2\n        /* \"#utility.yul\":3810:3848   */\n      eq\n        /* \"#utility.yul\":3807:3809   */\n      iszero\n      tag_128\n      jumpi\n        /* \"#utility.yul\":3863:3881   */\n      tag_129\n      tag_130\n      jump\t// in\n    tag_129:\n        /* \"#utility.yul\":3807:3809   */\n    tag_128:\n        /* \"#utility.yul\":3628:3897   */\n      pop\n      swap2\n      swap1\n      pop\n      jump\t// out\n        /* \"#utility.yul\":3903:4083   */\n    tag_130:\n        /* \"#utility.yul\":3951:4028   */\n      0x4e487b7100000000000000000000000000000000000000000000000000000000\n        /* \"#utility.yul\":3948:3949   */\n      0x00\n        /* \"#utility.yul\":3941:4029   */\n      mstore\n        /* \"#utility.yul\":4048:4052   */\n      0x22\n        /* \"#utility.yul\":4045:4046   */\n      0x04\n        /* \"#utility.yul\":4038:4053   */\n      mstore\n        /* \"#utility.yul\":4072:4076   */\n      0x24\n        /* \"#utility.yul\":4069:4070   */\n      0x00\n        /* \"#utility.yul\":4062:4077   */\n      revert\n        /* \"#utility.yul\":4089:4191   */\n    tag_97:\n      0x00\n        /* \"#utility.yul\":4181:4183   */\n      0x1f\n        /* \"#utility.yul\":4177:4184   */\n      not\n        /* \"#utility.yul\":4172:4174   */\n      0x1f\n        /* \"#utility.yul\":4165:4170   */\n      dup4\n        /* \"#utility.yul\":4161:4175   */\n      add\n        /* \"#utility.yul\":4157:4185   */\n      and\n        /* \"#utility.yul\":4147:4185   */\n      swap1\n      pop\n        /* \"#utility.yul\":4137:4191   */\n      swap2\n      swap1\n      pop\n      jump\t// out\n        /* \"#utility.yul\":4197:4319   */\n    tag_72:\n        /* \"#utility.yul\":4270:4294   */\n      tag_134\n        /* \"#utility.yul\":4288:4293   */\n      dup2\n        /* \"#utility.yul\":4270:4294   */\n      tag_101\n      jump\t// in\n    tag_134:\n        /* \"#utility.yul\":4263:4268   */\n      dup2\n        /* \"#utility.yul\":4260:4295   */\n      eq\n        /* \"#utility.yul\":4250:4252   */\n      tag_135\n      jumpi\n        /* \"#utility.yul\":4309:4310   */\n      0x00\n        /* \"#utility.yul\":4306:4307   */\n      dup1\n        /* \"#utility.yul\":4299:4311   */\n      revert\n        /* \"#utility.yul\":4250:4252   */\n    tag_135:\n        /* \"#utility.yul\":4240:4319   */\n      pop\n      jump\t// out\n\n    auxdata: 0xa2646970667358221220011a543e4f57f42b442dc5309344838cdb5899690e7c0312d0927f518615ff4764736f6c63430008000033\n}\n",
				"bytecode": {
					"linkReferences": {},
					"object": "6080604052600a6000557ffffffffffffffffffffffffffffffffffffffffffffffffffffffffffffffffe6001556040518060400160405280600181526020017f6100000000000000000000000000000000000000000000000000000000000000815250600290805190602001906100789291906100a6565b506001600360006101000a81548160ff0219169083151502179055503480156100a057600080fd5b506101aa565b8280546100b290610149565b90600052602060002090601f0160209004810192826100d4576000855561011b565b82601f106100ed57805160ff191683800117855561011b565b8280016001018555821561011b579182015b8281111561011a5782518255916020019190600101906100ff565b5b509050610128919061012c565b5090565b5b8082111561014557600081600090555060010161012d565b5090565b6000600282049050600182168061016157607f821691505b602082108114156101755761017461017b565b5b50919050565b7f4e487b7100000000000000000000000000000000000000000000000000000000600052602260045260246000fd5b6105dc806101b96000396000f3fe608060405234801561001057600080fd5b50600436106100a95760003560e01c8063a2d3f11711610071578063a2d3f11714610156578063a7ef432914610174578063ba22b3ca14610192578063d46300fd146101b0578063d6ba0cba146101ce578063e1967eae146101ec576100a9565b80630d1806ce146100ae5780633b74cb3a146100de5780635145cbc0146100fc5780637a01785f1461011a578063936469d614610138575b600080fd5b6100c860048036038101906100c39190610350565b61020a565b6040516100d59190610461565b60405180910390f35b6100e661022e565b6040516100f391906103ee565b60405180910390f35b610104610236565b6040516101119190610461565b60405180910390f35b61012261023e565b60405161012f91906103ee565b60405180910390f35b610140610264565b60405161014d9190610461565b60405180910390f35b61015e61026d565b60405161016b9190610409565b60405180910390f35b61017c610280565b6040516101899190610461565b60405180910390f35b61019a610292565b6040516101a7919061043f565b60405180910390f35b6101b8610320565b6040516101c59190610461565b60405180910390f35b6101d661032f565b6040516101e39190610424565b60405180910390f35b6101f4610335565b6040516102019190610461565b60405180910390f35b6004818154811061021a57600080fd5b906000526020600020016000915090505481565b600030905090565b600047905090565b600360019054906101000a900473ffffffffffffffffffffffffffffffffffffffff1681565b60008054905090565b600360009054906101000a900460ff1681565b60006005600081905550600054905090565b6002805461029f9061051d565b80601f01602080910402602001604051908101604052809291908181526020018280546102cb9061051d565b80156103185780601f106102ed57610100808354040283529160200191610318565b820191906000526020600020905b8154815290600101906020018083116102fb57829003601f168201915b505050505081565b60008060015490508091505090565b60015481565b60005481565b60008135905061034a8161058f565b92915050565b60006020828403121561036257600080fd5b60006103708482850161033b565b91505092915050565b61038281610498565b82525050565b610391816104aa565b82525050565b6103a0816104b6565b82525050565b60006103b18261047c565b6103bb8185610487565b93506103cb8185602086016104ea565b6103d48161057e565b840191505092915050565b6103e8816104e0565b82525050565b60006020820190506104036000830184610379565b92915050565b600060208201905061041e6000830184610388565b92915050565b60006020820190506104396000830184610397565b92915050565b6000602082019050818103600083015261045981846103a6565b905092915050565b600060208201905061047660008301846103df565b92915050565b600081519050919050565b600082825260208201905092915050565b60006104a3826104c0565b9050919050565b60008115159050919050565b6000819050919050565b600073ffffffffffffffffffffffffffffffffffffffff82169050919050565b6000819050919050565b60005b838110156105085780820151818401526020810190506104ed565b83811115610517576000848401525b50505050565b6000600282049050600182168061053557607f821691505b602082108114156105495761054861054f565b5b50919050565b7f4e487b7100000000000000000000000000000000000000000000000000000000600052602260045260246000fd5b6000601f19601f8301169050919050565b610598816104e0565b81146105a357600080fd5b5056fea2646970667358221220011a543e4f57f42b442dc5309344838cdb5899690e7c0312d0927f518615ff4764736f6c63430008000033",
					"opcodes": "PUSH1 0x80 PUSH1 0x40 MSTORE PUSH1 0xA PUSH1 0x0 SSTORE PUSH32 0xFFFFFFFFFFFFFFFFFFFFFFFFFFFFFFFFFFFFFFFFFFFFFFFFFFFFFFFFFFFFFFFE PUSH1 0x1 SSTORE PUSH1 0x40 MLOAD DUP1 PUSH1 0x40 ADD PUSH1 0x40 MSTORE DUP1 PUSH1 0x1 DUP2 MSTORE PUSH1 0x20 ADD PUSH32 0x6100000000000000000000000000000000000000000000000000000000000000 DUP2 MSTORE POP PUSH1 0x2 SWAP1 DUP1 MLOAD SWAP1 PUSH1 0x20 ADD SWAP1 PUSH2 0x78 SWAP3 SWAP2 SWAP1 PUSH2 0xA6 JUMP JUMPDEST POP PUSH1 0x1 PUSH1 0x3 PUSH1 0x0 PUSH2 0x100 EXP DUP2 SLOAD DUP2 PUSH1 0xFF MUL NOT AND SWAP1 DUP4 ISZERO ISZERO MUL OR SWAP1 SSTORE POP CALLVALUE DUP1 ISZERO PUSH2 0xA0 JUMPI PUSH1 0x0 DUP1 REVERT JUMPDEST POP PUSH2 0x1AA JUMP JUMPDEST DUP3 DUP1 SLOAD PUSH2 0xB2 SWAP1 PUSH2 0x149 JUMP JUMPDEST SWAP1 PUSH1 0x0 MSTORE PUSH1 0x20 PUSH1 0x0 KECCAK256 SWAP1 PUSH1 0x1F ADD PUSH1 0x20 SWAP1 DIV DUP2 ADD SWAP3 DUP3 PUSH2 0xD4 JUMPI PUSH1 0x0 DUP6 SSTORE PUSH2 0x11B JUMP JUMPDEST DUP3 PUSH1 0x1F LT PUSH2 0xED JUMPI DUP1 MLOAD PUSH1 0xFF NOT AND DUP4 DUP1 ADD OR DUP6 SSTORE PUSH2 0x11B JUMP JUMPDEST DUP3 DUP1 ADD PUSH1 0x1 ADD DUP6 SSTORE DUP3 ISZERO PUSH2 0x11B JUMPI SWAP2 DUP3 ADD JUMPDEST DUP3 DUP2 GT ISZERO PUSH2 0x11A JUMPI DUP3 MLOAD DUP3 SSTORE SWAP2 PUSH1 0x20 ADD SWAP2 SWAP1 PUSH1 0x1 ADD SWAP1 PUSH2 0xFF JUMP JUMPDEST JUMPDEST POP SWAP1 POP PUSH2 0x128 SWAP2 SWAP1 PUSH2 0x12C JUMP JUMPDEST POP SWAP1 JUMP JUMPDEST JUMPDEST DUP1 DUP3 GT ISZERO PUSH2 0x145 JUMPI PUSH1 0x0 DUP2 PUSH1 0x0 SWAP1 SSTORE POP PUSH1 0x1 ADD PUSH2 0x12D JUMP JUMPDEST POP SWAP1 JUMP JUMPDEST PUSH1 0x0 PUSH1 0x2 DUP3 DIV SWAP1 POP PUSH1 0x1 DUP3 AND DUP1 PUSH2 0x161 JUMPI PUSH1 0x7F DUP3 AND SWAP2 POP JUMPDEST PUSH1 0x20 DUP3 LT DUP2 EQ ISZERO PUSH2 0x175 JUMPI PUSH2 0x174 PUSH2 0x17B JUMP JUMPDEST JUMPDEST POP SWAP2 SWAP1 POP JUMP JUMPDEST PUSH32 0x4E487B7100000000000000000000000000000000000000000000000000000000 PUSH1 0x0 MSTORE PUSH1 0x22 PUSH1 0x4 MSTORE PUSH1 0x24 PUSH1 0x0 REVERT JUMPDEST PUSH2 0x5DC DUP1 PUSH2 0x1B9 PUSH1 0x0 CODECOPY PUSH1 0x0 RETURN INVALID PUSH1 0x80 PUSH1 0x40 MSTORE CALLVALUE DUP1 ISZERO PUSH2 0x10 JUMPI PUSH1 0x0 DUP1 REVERT JUMPDEST POP PUSH1 0x4 CALLDATASIZE LT PUSH2 0xA9 JUMPI PUSH1 0x0 CALLDATALOAD PUSH1 0xE0 SHR DUP1 PUSH4 0xA2D3F117 GT PUSH2 0x71 JUMPI DUP1 PUSH4 0xA2D3F117 EQ PUSH2 0x156 JUMPI DUP1 PUSH4 0xA7EF4329 EQ PUSH2 0x174 JUMPI DUP1 PUSH4 0xBA22B3CA EQ PUSH2 0x192 JUMPI DUP1 PUSH4 0xD46300FD EQ PUSH2 0x1B0 JUMPI DUP1 PUSH4 0xD6BA0CBA EQ PUSH2 0x1CE JUMPI DUP1 PUSH4 0xE1967EAE EQ PUSH2 0x1EC JUMPI PUSH2 0xA9 JUMP JUMPDEST DUP1 PUSH4 0xD1806CE EQ PUSH2 0xAE JUMPI DUP1 PUSH4 0x3B74CB3A EQ PUSH2 0xDE JUMPI DUP1 PUSH4 0x5145CBC0 EQ PUSH2 0xFC JUMPI DUP1 PUSH4 0x7A01785F EQ PUSH2 0x11A JUMPI DUP1 PUSH4 0x936469D6 EQ PUSH2 0x138 JUMPI JUMPDEST PUSH1 0x0 DUP1 REVERT JUMPDEST PUSH2 0xC8 PUSH1 0x4 DUP1 CALLDATASIZE SUB DUP2 ADD SWAP1 PUSH2 0xC3 SWAP2 SWAP1 PUSH2 0x350 JUMP JUMPDEST PUSH2 0x20A JUMP JUMPDEST PUSH1 0x40 MLOAD PUSH2 0xD5 SWAP2 SWAP1 PUSH2 0x461 JUMP JUMPDEST PUSH1 0x40 MLOAD DUP1 SWAP2 SUB SWAP1 RETURN JUMPDEST PUSH2 0xE6 PUSH2 0x22E JUMP JUMPDEST PUSH1 0x40 MLOAD PUSH2 0xF3 SWAP2 SWAP1 PUSH2 0x3EE JUMP JUMPDEST PUSH1 0x40 MLOAD DUP1 SWAP2 SUB SWAP1 RETURN JUMPDEST PUSH2 0x104 PUSH2 0x236 JUMP JUMPDEST PUSH1 0x40 MLOAD PUSH2 0x111 SWAP2 SWAP1 PUSH2 0x461 JUMP JUMPDEST PUSH1 0x40 MLOAD DUP1 SWAP2 SUB SWAP1 RETURN JUMPDEST PUSH2 0x122 PUSH2 0x23E JUMP JUMPDEST PUSH1 0x40 MLOAD PUSH2 0x12F SWAP2 SWAP1 PUSH2 0x3EE JUMP JUMPDEST PUSH1 0x40 MLOAD DUP1 SWAP2 SUB SWAP1 RETURN JUMPDEST PUSH2 0x140 PUSH2 0x264 JUMP JUMPDEST PUSH1 0x40 MLOAD PUSH2 0x14D SWAP2 SWAP1 PUSH2 0x461 JUMP JUMPDEST PUSH1 0x40 MLOAD DUP1 SWAP2 SUB SWAP1 RETURN JUMPDEST PUSH2 0x15E PUSH2 0x26D JUMP JUMPDEST PUSH1 0x40 MLOAD PUSH2 0x16B SWAP2 SWAP1 PUSH2 0x409 JUMP JUMPDEST PUSH1 0x40 MLOAD DUP1 SWAP2 SUB SWAP1 RETURN JUMPDEST PUSH2 0x17C PUSH2 0x280 JUMP JUMPDEST PUSH1 0x40 MLOAD PUSH2 0x189 SWAP2 SWAP1 PUSH2 0x461 JUMP JUMPDEST PUSH1 0x40 MLOAD DUP1 SWAP2 SUB SWAP1 RETURN JUMPDEST PUSH2 0x19A PUSH2 0x292 JUMP JUMPDEST PUSH1 0x40 MLOAD PUSH2 0x1A7 SWAP2 SWAP1 PUSH2 0x43F JUMP JUMPDEST PUSH1 0x40 MLOAD DUP1 SWAP2 SUB SWAP1 RETURN JUMPDEST PUSH2 0x1B8 PUSH2 0x320 JUMP JUMPDEST PUSH1 0x40 MLOAD PUSH2 0x1C5 SWAP2 SWAP1 PUSH2 0x461 JUMP JUMPDEST PUSH1 0x40 MLOAD DUP1 SWAP2 SUB SWAP1 RETURN JUMPDEST PUSH2 0x1D6 PUSH2 0x32F JUMP JUMPDEST PUSH1 0x40 MLOAD PUSH2 0x1E3 SWAP2 SWAP1 PUSH2 0x424 JUMP JUMPDEST PUSH1 0x40 MLOAD DUP1 SWAP2 SUB SWAP1 RETURN JUMPDEST PUSH2 0x1F4 PUSH2 0x335 JUMP JUMPDEST PUSH1 0x40 MLOAD PUSH2 0x201 SWAP2 SWAP1 PUSH2 0x461 JUMP JUMPDEST PUSH1 0x40 MLOAD DUP1 SWAP2 SUB SWAP1 RETURN JUMPDEST PUSH1 0x4 DUP2 DUP2 SLOAD DUP2 LT PUSH2 0x21A JUMPI PUSH1 0x0 DUP1 REVERT JUMPDEST SWAP1 PUSH1 0x0 MSTORE PUSH1 0x20 PUSH1 0x0 KECCAK256 ADD PUSH1 0x0 SWAP2 POP SWAP1 POP SLOAD DUP2 JUMP JUMPDEST PUSH1 0x0 ADDRESS SWAP1 POP SWAP1 JUMP JUMPDEST PUSH1 0x0 SELFBALANCE SWAP1 POP SWAP1 JUMP JUMPDEST PUSH1 0x3 PUSH1 0x1 SWAP1 SLOAD SWAP1 PUSH2 0x100 EXP SWAP1 DIV PUSH20 0xFFFFFFFFFFFFFFFFFFFFFFFFFFFFFFFFFFFFFFFF AND DUP2 JUMP JUMPDEST PUSH1 0x0 DUP1 SLOAD SWAP1 POP SWAP1 JUMP JUMPDEST PUSH1 0x3 PUSH1 0x0 SWAP1 SLOAD SWAP1 PUSH2 0x100 EXP SWAP1 DIV PUSH1 0xFF AND DUP2 JUMP JUMPDEST PUSH1 0x0 PUSH1 0x5 PUSH1 0x0 DUP2 SWAP1 SSTORE POP PUSH1 0x0 SLOAD SWAP1 POP SWAP1 JUMP JUMPDEST PUSH1 0x2 DUP1 SLOAD PUSH2 0x29F SWAP1 PUSH2 0x51D JUMP JUMPDEST DUP1 PUSH1 0x1F ADD PUSH1 0x20 DUP1 SWAP2 DIV MUL PUSH1 0x20 ADD PUSH1 0x40 MLOAD SWAP1 DUP2 ADD PUSH1 0x40 MSTORE DUP1 SWAP3 SWAP2 SWAP1 DUP2 DUP2 MSTORE PUSH1 0x20 ADD DUP3 DUP1 SLOAD PUSH2 0x2CB SWAP1 PUSH2 0x51D JUMP JUMPDEST DUP1 ISZERO PUSH2 0x318 JUMPI DUP1 PUSH1 0x1F LT PUSH2 0x2ED JUMPI PUSH2 0x100 DUP1 DUP4 SLOAD DIV MUL DUP4 MSTORE SWAP2 PUSH1 0x20 ADD SWAP2 PUSH2 0x318 JUMP JUMPDEST DUP3 ADD SWAP2 SWAP1 PUSH1 0x0 MSTORE PUSH1 0x20 PUSH1 0x0 KECCAK256 SWAP1 JUMPDEST DUP2 SLOAD DUP2 MSTORE SWAP1 PUSH1 0x1 ADD SWAP1 PUSH1 0x20 ADD DUP1 DUP4 GT PUSH2 0x2FB JUMPI DUP3 SWAP1 SUB PUSH1 0x1F AND DUP3 ADD SWAP2 JUMPDEST POP POP POP POP POP DUP2 JUMP JUMPDEST PUSH1 0x0 DUP1 PUSH1 0x1 SLOAD SWAP1 POP DUP1 SWAP2 POP POP SWAP1 JUMP JUMPDEST PUSH1 0x1 SLOAD DUP2 JUMP JUMPDEST PUSH1 0x0 SLOAD DUP2 JUMP JUMPDEST PUSH1 0x0 DUP2 CALLDATALOAD SWAP1 POP PUSH2 0x34A DUP2 PUSH2 0x58F JUMP JUMPDEST SWAP3 SWAP2 POP POP JUMP JUMPDEST PUSH1 0x0 PUSH1 0x20 DUP3 DUP5 SUB SLT ISZERO PUSH2 0x362 JUMPI PUSH1 0x0 DUP1 REVERT JUMPDEST PUSH1 0x0 PUSH2 0x370 DUP5 DUP3 DUP6 ADD PUSH2 0x33B JUMP JUMPDEST SWAP2 POP POP SWAP3 SWAP2 POP POP JUMP JUMPDEST PUSH2 0x382 DUP2 PUSH2 0x498 JUMP JUMPDEST DUP3 MSTORE POP POP JUMP JUMPDEST PUSH2 0x391 DUP2 PUSH2 0x4AA JUMP JUMPDEST DUP3 MSTORE POP POP JUMP JUMPDEST PUSH2 0x3A0 DUP2 PUSH2 0x4B6 JUMP JUMPDEST DUP3 MSTORE POP POP JUMP JUMPDEST PUSH1 0x0 PUSH2 0x3B1 DUP3 PUSH2 0x47C JUMP JUMPDEST PUSH2 0x3BB DUP2 DUP6 PUSH2 0x487 JUMP JUMPDEST SWAP4 POP PUSH2 0x3CB DUP2 DUP6 PUSH1 0x20 DUP7 ADD PUSH2 0x4EA JUMP JUMPDEST PUSH2 0x3D4 DUP2 PUSH2 0x57E JUMP JUMPDEST DUP5 ADD SWAP2 POP POP SWAP3 SWAP2 POP POP JUMP JUMPDEST PUSH2 0x3E8 DUP2 PUSH2 0x4E0 JUMP JUMPDEST DUP3 MSTORE POP POP JUMP JUMPDEST PUSH1 0x0 PUSH1 0x20 DUP3 ADD SWAP1 POP PUSH2 0x403 PUSH1 0x0 DUP4 ADD DUP5 PUSH2 0x379 JUMP JUMPDEST SWAP3 SWAP2 POP POP JUMP JUMPDEST PUSH1 0x0 PUSH1 0x20 DUP3 ADD SWAP1 POP PUSH2 0x41E PUSH1 0x0 DUP4 ADD DUP5 PUSH2 0x388 JUMP JUMPDEST SWAP3 SWAP2 POP POP JUMP JUMPDEST PUSH1 0x0 PUSH1 0x20 DUP3 ADD SWAP1 POP PUSH2 0x439 PUSH1 0x0 DUP4 ADD DUP5 PUSH2 0x397 JUMP JUMPDEST SWAP3 SWAP2 POP POP JUMP JUMPDEST PUSH1 0x0 PUSH1 0x20 DUP3 ADD SWAP1 POP DUP2 DUP2 SUB PUSH1 0x0 DUP4 ADD MSTORE PUSH2 0x459 DUP2 DUP5 PUSH2 0x3A6 JUMP JUMPDEST SWAP1 POP SWAP3 SWAP2 POP POP JUMP JUMPDEST PUSH1 0x0 PUSH1 0x20 DUP3 ADD SWAP1 POP PUSH2 0x476 PUSH1 0x0 DUP4 ADD DUP5 PUSH2 0x3DF JUMP JUMPDEST SWAP3 SWAP2 POP POP JUMP JUMPDEST PUSH1 0x0 DUP2 MLOAD SWAP1 POP SWAP2 SWAP1 POP JUMP JUMPDEST PUSH1 0x0 DUP3 DUP3 MSTORE PUSH1 0x20 DUP3 ADD SWAP1 POP SWAP3 SWAP2 POP POP JUMP JUMPDEST PUSH1 0x0 PUSH2 0x4A3 DUP3 PUSH2 0x4C0 JUMP JUMPDEST SWAP1 POP SWAP2 SWAP1 POP JUMP JUMPDEST PUSH1 0x0 DUP2 ISZERO ISZERO SWAP1 POP SWAP2 SWAP1 POP JUMP JUMPDEST PUSH1 0x0 DUP2 SWAP1 POP SWAP2 SWAP1 POP JUMP JUMPDEST PUSH1 0x0 PUSH20 0xFFFFFFFFFFFFFFFFFFFFFFFFFFFFFFFFFFFFFFFF DUP3 AND SWAP1 POP SWAP2 SWAP1 POP JUMP JUMPDEST PUSH1 0x0 DUP2 SWAP1 POP SWAP2 SWAP1 POP JUMP JUMPDEST PUSH1 0x0 JUMPDEST DUP4 DUP2 LT ISZERO PUSH2 0x508 JUMPI DUP1 DUP3 ADD MLOAD DUP2 DUP5 ADD MSTORE PUSH1 0x20 DUP2 ADD SWAP1 POP PUSH2 0x4ED JUMP JUMPDEST DUP4 DUP2 GT ISZERO PUSH2 0x517 JUMPI PUSH1 0x0 DUP5 DUP5 ADD MSTORE JUMPDEST POP POP POP POP JUMP JUMPDEST PUSH1 0x0 PUSH1 0x2 DUP3 DIV SWAP1 POP PUSH1 0x1 DUP3 AND DUP1 PUSH2 0x535 JUMPI PUSH1 0x7F DUP3 AND SWAP2 POP JUMPDEST PUSH1 0x20 DUP3 LT DUP2 EQ ISZERO PUSH2 0x549 JUMPI PUSH2 0x548 PUSH2 0x54F JUMP JUMPDEST JUMPDEST POP SWAP2 SWAP1 POP JUMP JUMPDEST PUSH32 0x4E487B7100000000000000000000000000000000000000000000000000000000 PUSH1 0x0 MSTORE PUSH1 0x22 PUSH1 0x4 MSTORE PUSH1 0x24 PUSH1 0x0 REVERT JUMPDEST PUSH1 0x0 PUSH1 0x1F NOT PUSH1 0x1F DUP4 ADD AND SWAP1 POP SWAP2 SWAP1 POP JUMP JUMPDEST PUSH2 0x598 DUP2 PUSH2 0x4E0 JUMP JUMPDEST DUP2 EQ PUSH2 0x5A3 JUMPI PUSH1 0x0 DUP1 REVERT JUMPDEST POP JUMP INVALID LOG2 PUSH5 0x6970667358 0x22 SLT KECCAK256 ADD BYTE SLOAD RETURNDATACOPY 0x4F JUMPI DELEGATECALL 0x2B DIFFICULTY 0x2D 0xC5 ADDRESS SWAP4 DIFFICULTY DUP4 DUP13 0xDB PC SWAP10 PUSH10 0xE7C0312D0927F518615 SELFDESTRUCT SELFBALANCE PUSH5 0x736F6C6343 STOP ADDMOD STOP STOP CALLER "
				},
				"gasEstimates": {
					"creation": {
						"codeDepositCost": "300000",
						"executionCost": "infinite",
						"totalCost": "infinite"
					},
					"external": {
						"getA()": "1216",
						"getHelloWorld()": "21173",
						"getSmartContractAddress()": "408",
						"getSmartContractBalance()": "384",
						"getStateVariable()": "1226",
						"stateVariable()": "1239",
						"stateVariableInt()": "1217",
						"varAddress()": "1331",
						"varArrayUint(uint256)": "infinite",
						"varBool()": "1171",
						"varString()": "infinite"
					}
				},
				"methodIdentifiers": {
					"getA()": "d46300fd",
					"getHelloWorld()": "a7ef4329",
					"getSmartContractAddress()": "3b74cb3a",
					"getSmartContractBalance()": "5145cbc0",
					"getStateVariable()": "936469d6",
					"stateVariable()": "e1967eae",
					"stateVariableInt()": "d6ba0cba",
					"varAddress()": "7a01785f",
					"varArrayUint(uint256)": "0d1806ce",
					"varBool()": "a2d3f117",
					"varString()": "ba22b3ca"
				}
			},
			"storageLayout": {
				"storage": [
					{
						"astId": 4,
						"contract": "contracts/HelloWorld.sol:HelloWorld",
						"label": "stateVariable",
						"offset": 0,
						"slot": "0",
						"type": "t_uint256"
					},
					{
						"astId": 8,
						"contract": "contracts/HelloWorld.sol:HelloWorld",
						"label": "stateVariableInt",
						"offset": 0,
						"slot": "1",
						"type": "t_int256"
					},
					{
						"astId": 11,
						"contract": "contracts/HelloWorld.sol:HelloWorld",
						"label": "varString",
						"offset": 0,
						"slot": "2",
						"type": "t_string_storage"
					},
					{
						"astId": 14,
						"contract": "contracts/HelloWorld.sol:HelloWorld",
						"label": "varBool",
						"offset": 0,
						"slot": "3",
						"type": "t_bool"
					},
					{
						"astId": 16,
						"contract": "contracts/HelloWorld.sol:HelloWorld",
						"label": "varAddress",
						"offset": 1,
						"slot": "3",
						"type": "t_address"
					},
					{
						"astId": 19,
						"contract": "contracts/HelloWorld.sol:HelloWorld",
						"label": "varArrayUint",
						"offset": 0,
						"slot": "4",
						"type": "t_array(t_uint256)dyn_storage"
					},
					{
						"astId": 23,
						"contract": "contracts/HelloWorld.sol:HelloWorld",
						"label": "varMapping",
						"offset": 0,
						"slot": "5",
						"type": "t_mapping(t_uint256,t_bool)"
					}
				],
				"types": {
					"t_address": {
						"encoding": "inplace",
						"label": "address",
						"numberOfBytes": "20"
					},
					"t_array(t_uint256)dyn_storage": {
						"base": "t_uint256",
						"encoding": "dynamic_array",
						"label": "uint256[]",
						"numberOfBytes": "32"
					},
					"t_bool": {
						"encoding": "inplace",
						"label": "bool",
						"numberOfBytes": "1"
					},
					"t_int256": {
						"encoding": "inplace",
						"label": "int256",
						"numberOfBytes": "32"
					},
					"t_mapping(t_uint256,t_bool)": {
						"encoding": "mapping",
						"key": "t_uint256",
						"label": "mapping(uint256 => bool)",
						"numberOfBytes": "32",
						"value": "t_bool"
					},
					"t_string_storage": {
						"encoding": "bytes",
						"label": "string",
						"numberOfBytes": "32"
					},
					"t_uint256": {
						"encoding": "inplace",
						"label": "uint256",
						"numberOfBytes": "32"
					}
				}
			},
			"userdoc": {
				"kind": "user",
				"methods": {},
				"version": 1
			}
		}
	}
}