{
	"data": {
		"bytecode": {
			"linkReferences": {},
			"object": "6080604052600160005534801561001557600080fd5b5060b6806100246000396000f3fe6080604052348015600f57600080fd5b506004361060285760003560e01c8063a1aa8ab114602d575b600080fd5b60336047565b604051603e9190605d565b60405180910390f35b60008054905090565b6057816076565b82525050565b6000602082019050607060008301846050565b92915050565b600081905091905056fea2646970667358221220d1c4e7c3ff463d81b34f309a1bb7dd2abc46b75995b01002289ca6150cd1ff1e64736f6c63430008000033",
			"opcodes": "PUSH1 0x80 PUSH1 0x40 MSTORE PUSH1 0x1 PUSH1 0x0 SSTORE CALLVALUE DUP1 ISZERO PUSH2 0x15 JUMPI PUSH1 0x0 DUP1 REVERT JUMPDEST POP PUSH1 0xB6 DUP1 PUSH2 0x24 PUSH1 0x0 CODECOPY PUSH1 0x0 RETURN INVALID PUSH1 0x80 PUSH1 0x40 MSTORE CALLVALUE DUP1 ISZERO PUSH1 0xF JUMPI PUSH1 0x0 DUP1 REVERT JUMPDEST POP PUSH1 0x4 CALLDATASIZE LT PUSH1 0x28 JUMPI PUSH1 0x0 CALLDATALOAD PUSH1 0xE0 SHR DUP1 PUSH4 0xA1AA8AB1 EQ PUSH1 0x2D JUMPI JUMPDEST PUSH1 0x0 DUP1 REVERT JUMPDEST PUSH1 0x33 PUSH1 0x47 JUMP JUMPDEST PUSH1 0x40 MLOAD PUSH1 0x3E SWAP2 SWAP1 PUSH1 0x5D JUMP JUMPDEST PUSH1 0x40 MLOAD DUP1 SWAP2 SUB SWAP1 RETURN JUMPDEST PUSH1 0x0 DUP1 SLOAD SWAP1 POP SWAP1 JUMP JUMPDEST PUSH1 0x57 DUP2 PUSH1 0x76 JUMP JUMPDEST DUP3 MSTORE POP POP JUMP JUMPDEST PUSH1 0x0 PUSH1 0x20 DUP3 ADD SWAP1 POP PUSH1 0x70 PUSH1 0x0 DUP4 ADD DUP5 PUSH1 0x50 JUMP JUMPDEST SWAP3 SWAP2 POP POP JUMP JUMPDEST PUSH1 0x0 DUP2 SWAP1 POP SWAP2 SWAP1 POP JUMP INVALID LOG2 PUSH5 0x6970667358 0x22 SLT KECCAK256 0xD1 0xC4 0xE7 0xC3 SELFDESTRUCT CHAINID RETURNDATASIZE DUP2 0xB3 0x4F ADDRESS SWAP11 SHL 0xB7 0xDD 0x2A 0xBC CHAINID 0xB7 MSIZE SWAP6 0xB0 LT MUL 0x28 SWAP13 0xA6 ISZERO 0xC 0xD1 SELFDESTRUCT 0x1E PUSH5 0x736F6C6343 STOP ADDMOD STOP STOP CALLER "
		},
		"gasEstimates": {
			"creation": {
				"codeDepositCost": "36400",
				"executionCost": "20093",
				"totalCost": "56493"
			},
			"external": {
				"GetHelloWorld()": "1115"
			}
		},
		"methodIdentifiers": {
			"GetHelloWorld()": "a1aa8ab1"
		}
	},
	"abi": [
		{
			"inputs": [],
			"name": "GetHelloWorld",
			"outputs": [
				{
					"internalType": "uint256",
					"name": "",
					"type": "uint256"
				}
			],
			"stateMutability": "view",
			"type": "function"
		}
	]
}